:1000000006C10000A4C2000077C200004AC200007E
:100010001DC20000F0C10000C3C1000096C1000075
:1000200069C1000013C1000011C100000FC1000030
:100030000DC100000BC1000009C1000007C1000094
:1000400005C1000003C1000001C10000FFC00000A5
:10005000FDC00000FBC00000F9C0000001C10000AD
:10006000F5C00000F3C00000F1C00000EFC00000C8
:10007000EDC00000EBC00000E9C00000E7C00000D8
:10008000E5C00000E3C00000E1C00000DFC00000E8
:10009000DDC00000DBC00000D9C00000D7C00000F8
:1000A000D5C00000D3C00000D1C00000CFC0000008
:1000B000CDC00000CBC00000C9C00000C7C0000018
:1000C000C5C00000C3C00000C1C00000BFC0000028
:1000D000BDC00000BBC00000B9C00000B7C0000038
:1000E000B5C00000BD03C003AF03B303B703F703FC
:1000F000C403C803CE03D203D603DC03E003E40346
:10010000F703EA03EE03F2030000210024002700B6
:100110002A002D0030003300010100000401070116
:100120000A0100002200250028002B002E003100CB
:10013000340002010000050108010B010505050559
:10014000070508080808020202020A0A080804044F
:10015000040401010101010101010303030303037D
:100160000303040707070C0C0C0C0C0C0C0C02020C
:10017000020206060606060606060B0B0B0B0B0B09
:100180000B0B010210202008081020401020408096
:10019000020102010804020101020408102040804B
:1001A00080402010080402018004020180402010D9
:1001B0000804020108040201010204081020408022
:1001C000010204081020408000000A0B02090C0DF7
:1001D0000E080703040100000000000000000000FA
:1001E000000000000000000000000000000000000F
:1001F00000000000121110000000000000000000CC
:1002000000000000000000000000000000001124B9
:100210001FBECFEFD1E2DEBFCDBF00E00CBF12E0CA
:10022000A0E0B2E0E6E3F8E000E00BBF02C0079018
:100230000D92A031B107D9F722E0A0E1B2E001C0F0
:100240001D92AA31B207E1F7ADD1F3C2D9CE909198
:10025000100281E0911180E08093100208950895CA
:100260001F920F920FB60F9211242F933F938F93EB
:100270009F93AF93BF938091160290911702A09124
:100280001802B09119023091150223E0230F2D3787
:1002900020F40196A11DB11D05C026E8230F02968A
:1002A000A11DB11D20931502809316029093170291
:1002B000A0931802B093190280911102909112023A
:1002C000A0911302B09114020196A11DB11D80935B
:1002D000110290931202A0931302B0931402BF91E3
:1002E000AF919F918F913F912F910F900FBE0F90E3
:1002F0001F9018951F920F920FB60F9211240BB6F4
:100300000F922F933F934F935F936F937F938F93AE
:100310009F93AF93BF93EF93FF93E0910E02F09101
:100320000F021995FF91EF91BF91AF919F918F911E
:100330007F916F915F914F913F912F910F900BBEE5
:100340000F900FBE0F901F9018951F920F920FB62F
:100350000F9211240BB60F922F933F934F935F93FD
:100360006F937F938F939F93AF93BF93EF93FF937D
:10037000E0910C02F0910D021995FF91EF91BF9160
:10038000AF919F918F917F916F915F914F913F912D
:100390002F910F900BBE0F900FBE0F901F901895CE
:1003A0001F920F920FB60F9211240BB60F922F933C
:1003B0003F934F935F936F937F938F939F93AF93ED
:1003C000BF93EF93FF93E0910202F091030219951E
:1003D000FF91EF91BF91AF919F918F917F916F911D
:1003E0005F914F913F912F910F900BBE0F900FBED9
:1003F0000F901F9018951F920F920FB60F92112415
:100400000BB60F922F933F934F935F936F937F930E
:100410008F939F93AF93BF93EF93FF93E09100026D
:10042000F09101021995FF91EF91BF91AF919F91CA
:100430008F917F916F915F914F913F912F910F908D
:100440000BBE0F900FBE0F901F9018951F920F922A
:100450000FB60F9211240BB60F922F933F934F9329
:100460005F936F937F938F939F93AF93BF93EF931C
:10047000FF93E0910A02F0910B021995FF91EF9121
:10048000BF91AF919F918F917F916F915F914F91AC
:100490003F912F910F900BBE0F900FBE0F901F90AA
:1004A00018951F920F920FB60F9211240BB60F9250
:1004B0002F933F934F935F936F937F938F939F936C
:1004C000AF93BF93EF93FF93E0910802F09109027D
:1004D0001995FF91EF91BF91AF919F918F917F916E
:1004E0006F915F914F913F912F910F900BBE0F90A5
:1004F0000FBE0F901F9018951F920F920FB60F927C
:1005000011240BB60F922F933F934F935F936F93EA
:100510007F938F939F93AF93BF93EF93FF93E0915C
:100520000602F09107021995FF91EF91BF91AF91EB
:100530009F918F917F916F915F914F913F912F91FB
:100540000F900BBE0F900FBE0F901F9018951F922B
:100550000F920FB60F9211240BB60F922F933F9369
:100560004F935F936F937F938F939F93AF93BF93BB
:10057000EF93FF93E0910402F09105021995FF912A
:10058000EF91BF91AF919F918F917F916F915F910B
:100590004F913F912F910F900BBE0F900FBE0F9078
:1005A0001F901895789484B5826084BD84B581606D
:1005B00084BD85B5826085BD85B5816085BD80912E
:1005C0006E00816080936E001092810080918100A6
:1005D000826080938100809181008160809381009E
:1005E000809180008160809380008091B100846060
:1005F0008093B1008091B00081608093B0008091C1
:10060000910082608093910080919100816080933D
:100610009100809190008160809390008091A10072
:1006200082608093A1008091A10081608093A100ED
:100630008091A00081608093A00080912101826060
:10064000809321018091210181608093210180911B
:10065000200181608093200180917A0084608093E2
:100660007A0080917A00826080937A0080917A008B
:10067000816080937A0080917A00806880937A000C
:100680001092C100CFE8D1E0FE01249109E411E00D
:10069000F8018491882399F090E0880F991FFC015C
:1006A000E85FFE4FA591B491FC01EE5DFE4F859190
:1006B00094919FB7F8948C91822B8C939FBFE4E820
:1006C000F1E02491EEE3F1E084918823C9F090E019
:1006D000880F991FFC01E85FFE4FA591B491FC01C2
:1006E000EE5DFE4F459154919FB7F8948C91322F57
:1006F000309583238C93DA01EC912E2B2C939FBFA2
:1007000087E291E0909301028093000280916A0059
:100710008C7F816080936A00EC9A95EDE92E91E0E0
:10072000F92E20E0C22E20E0D22E30911002F701E7
:100730004491FE012491F8019491992309F46AC02F
:10074000442309F454C050E0FA013197E231F10535
:1007500008F04DC08827EE58FF4F8F4F62C0809140
:1007600080008F7707C0809180008F7D03C08091CB
:100770008000877F809380003AC084B58F7702C065
:1007800084B58F7D84BD33C08091B0008F7703C066
:100790008091B0008F7D8093B00029C0809190003F
:1007A0008F7707C0809190008F7D03C0809190006B
:1007B000877F809390001BC08091A0008F7707C037
:1007C0008091A0008F7D03C08091A000877F8093DF
:1007D000A0000DC0809120018F7707C0809120017B
:1007E0008F7D03C080912001877F80932001E92FB6
:1007F000F0E0EE0FFF1FEE5DFE4FA591B4919FB7A5
:10080000F8948C91311103C02095282301C0282B26
:100810002C939FBFC114D10409F487CF0E9400001C
:1008200084CFEE0FFF1F881F8BBF0790F691E02D3E
:060830001994F894FFCFBB
:100836002F012F012F012F012F012F012F012F0132
:00000001FF
